:100000000C943A000C9457000C9457000C94570031
:100010000C946B010C94A7010C9457000C9457009E
:100020000C9457000C9457000C9457000C949503B3
:100030000C9457000C9457000C94BA030C9457007E
:100040000C9457000C9457000C94FF000C9457002C
:100050000C9457000C9457000C9457000C945700C4
:100060000C9457000C9457006364696E6F7073753D
:1000700078585B0011241FBECFEFD8E0DEBFCDBFA4
:1000800011E0A0E0B1E0E4E2F1E202C005900D92DF
:10009000A437B107D9F711E0A4E7B1E001C01D9280
:1000A000AD3AB107E1F70E94EC030C9490100C9468
:1000B00000009BB19F709BB99BB18295807F982B6C
:1000C0009BB9299A299A299808951F93182F289A3D
:1000D00082958F700E945900812F0E94590080E400
:1000E0009FE10197F1F71F910895CF93DF93EC0102
:1000F00002C00E94650089918823D9F7DF91CF91D2
:1001000008951F93182F289882958F700E94590088
:10011000812F0E94590080E49FE10197F1F71F9120
:100120000895882319F4862F805802C0862F8054A2
:100130000E948100089584B1836084B98AB1806F80
:100140008AB980E69AEE0197F1F780E30E945900A0
:1001500080E29EE40197F1F780E30E94590080EE6F
:1001600091E00197F1F780E30E94590080E20E943C
:10017000590080E49FE10197F1F788E20E94810035
:100180008FE00E94810008958091C00087FFFCCF1E
:100190008091C6000895982F8091C00085FFFCCF04
:1001A0009093C60008959C019695879590937A0147
:1001B0008093790110927E0110927D01220F331FEE
:1001C00040E050E064E274EF80E090E00E940B0AAF
:1001D00027BD85B5846085BD16BC089505966AE087
:1001E00070E00E94F809CB0135E303C0232F2A9564
:1001F000F1F701972FEF8F3F9207C1F708951F92F4
:100200000F920FB60F9211242F938F939F93EF931A
:10021000FF932091C6002C3359F410928B01109259
:100220008A0181E090E090938D0180938C0119C048
:100230002E33E1F480918E0190918F01892BB1F0E2
:1002400081E090E090938B0180938A0110928D0160
:1002500010928C01E0918E01F0918F01ED55FE4FCF
:10026000108210928F0110928E012BC0822F80532A
:100270008A3040F42E33A9F480918E0190918F0141
:10028000892B79F410928D0110928C011092A301A8
:100290001092A4011092A5011092A6011092A7013C
:1002A00010C0E0918E01F0918F01ED55FE4F20833B
:1002B00080918E0190918F01019690938F01809390
:1002C0008E01FF91EF919F918F912F910F900FBE13
:1002D0000F901F9018951F920F920FB60F92112436
:1002E0008F939F93329B12C01092850010928400CE
:1002F000109274018091810082608093810081E07E
:1003000090E090939A01809399011AC0809199018D
:1003100090919A01892BA1F081E0809374018091E2
:100320008100887F80938100809184009091850076
:100330009093800180937F0110929A01109299010D
:100340009F918F910F900FBE0F901F9018951F9245
:100350000F920FB60F9211242F938F939F9389B111
:10036000982F947090939E01887080939201809151
:100370009E01882319F081E080939E018091920173
:10038000882319F081E08093920180918301882372
:1003900009F0E1C080919D01882361F580919E0163
:1003A000813059F480939B01809175019091760181
:1003B000019690937601809375018091920181302E
:1003C00061F482E080939B018091750190917601A8
:1003D0000197909376018093750180919E01882307
:1003E00009F090C080919201882309F08BC010928F
:1003F0009B0188C080919D01813061F580919E01B3
:10040000882359F410929B01809175019091760197
:1004100001979093760180937501809192018130CC
:1004200061F483E080939B01809175019091760146
:100430000196909376018093750190919E01913081
:1004400009F060C080919201882309F05BC090930D
:100450009B0158C080919D01823049F580919E0199
:10046000813061F483E080939B01809175019091CC
:1004700076010197909376018093750180919201A6
:10048000882359F410929B01809175019091760117
:100490000196909376018093750180919E01882347
:1004A00089F580919201813069F582E029C08091BF
:1004B0009E01882361F482E080939B018091750105
:1004C00090917601019690937601809375018091C9
:1004D0009201882361F481E080939B0180917501F2
:1004E00090917601019790937601809375018091A8
:1004F0009E01813039F480919201813019F483E0BA
:1005000080939B0190919B0180919D01981751F0E0
:1005100081E090E0909385018093840180919B011C
:1005200080939D0180917501909176018159914050
:100530001CF080E991E00AC08091750190917601EC
:10054000181619060CF4E9C081E090E0909376014A
:1005500080937501E2C0813009F0DFC080919C0179
:10056000882361F580919E01813059F48093A80120
:100570008091770190917801019690937801809312
:10058000770180919201813061F482E08093A8012B
:1005900080917701909178010197909378018093F1
:1005A000770180919E01882309F090C0809192018B
:1005B000882309F08BC01092A80188C080919C010B
:1005C000813061F580919E01882359F41092A80131
:1005D00080917701909178010197909378018093B1
:1005E000770180919201813061F483E08093A801CA
:1005F0008091770190917801019690937801809392
:10060000770190919E01913009F060C08091920134
:10061000882309F05BC09093A80158C080919C0189
:10062000823049F580919E01813061F483E08093AE
:10063000A8018091770190917801019790937801BA
:100640008093770180919201882359F41092A80138
:100650008091770190917801019690937801809331
:10066000770180919E01882389F5809192018130E4
:1006700069F582E029C080919E01882361F482E0BF
:100680008093A801809177019091780101969093D1
:1006900078018093770180919201882361F481E051
:1006A0008093A801809177019091780101979093B0
:1006B00078018093770180919E01813039F4809197
:1006C0009201813019F483E08093A8019091A801F0
:1006D00080919C01981751F081E090E09093870100
:1006E000809386018091A80180939C01809177017D
:1006F00090917801815991401CF080E991E009C006
:1007000080917701909178011816190634F081E0F4
:1007100090E090937801809377019F918F912F9132
:100720000F900FBE0F901F9018951F920F920FB64B
:100730000F9211248F939F93EF93FF93E1E8F0E0E2
:100740008081887F808381E090E090937C0180931A
:100750007B0110929A0110929901109285001092DB
:100760008400FF91EF919F918F910F900FBE0F909A
:100770001F9018951F920F920FB60F9211242F936E
:100780003F938F939F9380917D0190917E0101967D
:1007900090937E0180937D0188B190E2892788B98A
:1007A00020917D0130917E018091790190917A01B3
:1007B0002817390744F085B58B7F85BD10927E01DF
:1007C00010927D0116BC9F918F913F912F910F90B8
:1007D0000FBE0F901F9018952F923F924F925F92ED
:1007E0006F927F928F929F92AF92BF92CF92DF9241
:1007F000EF92FF920F931F93DF93CF93CDB7DEB7A6
:10080000E2970FB6F894DEBF0FBECDBF87E690E04B
:100810009093C5008093C4008091C100886180934B
:10082000C1008091C20086608093C2008091C100A7
:1008300080688093C1000E947A090E9485090E9405
:1008400096090E949B0080916800866080936800F2
:1008500080916C00866080936C0080916D008C604C
:1008600080936D0078942C9A87B1826387B9389809
:1008700084B1886284B98BB18D608BB93B9A4398FF
:100880002DB73EB7285030400FB6F8943EBF0FBE8C
:100890002DBFEDB7FEB731968E01015E1F4FADB78C
:1008A000BEB712961C930E931197BFE0CB2ED12C9E
:1008B000D382C282A0E0EA2EA1E0FA2EF582E48281
:1008C00083E091E0978386830E945C0AEDB7FEB7D0
:1008D00038960FB6F894FEBF0FBEEDBF80E060E023
:1008E0000E949100C8010E9475002DB73EB72850A4
:1008F00030400FB6F8943EBF0FBE2DBFEDB7FEB728
:100900003196ADB7BEB712961C930E931197D38252
:10091000C282F582E48281E191E0978386830E941E
:100920005C0AEDB7FEB738960FB6F894FEBF0FBE5F
:10093000EDBF81E060E00E949100C8010E94750057
:1009400080E197E220E931E0F9013197F1F7019771
:10095000D9F781E00E94810089B1847080939E0163
:1009600089B188708093920180919201882339F433
:1009700080919E01882319F410929C0117C08091E8
:100980009201882331F480919E01882311F081E047
:100990000BC080919201882331F080919E018823C1
:1009A00011F482E001C083E080939C0180919C015E
:1009B0008093A80180919201882339F480919E014F
:1009C000882319F410929D0117C080919201882309
:1009D00031F480919E01882311F081E00BC0809159
:1009E0009201882331F080919E01882311F482E0E6
:1009F00001C083E080939D0180919D018093A801B7
:100A0000449A2D9A84E690E00E94190F9093760103
:100A10008093750188EC90E00E94190F9093780103
:100A200080937701809175019091760118161906CF
:100A30003CF480917501909176018159914034F098
:100A400081E090E090937601809375018091770129
:100A500090917801181619063CF4809177019091D5
:100A600078018159914034F081E090E090937801D1
:100A700080937701E3E1AE2EB12CAC0EBD1E7DE478
:100A8000672E71E0772E6CE0862E912C58E8252E8B
:100A900053E1352E412C512C80918A0190918B018C
:100AA000019709F079C0809188019091890100D067
:100AB00000D000D0EDB7FEB7319623EA31E0ADB7F4
:100AC000BEB712963C932E9311974DE151E053839C
:100AD000428388E891E0958384830E948D0A809107
:100AE000880190918901209188013091890100D07D
:100AF00000D0EDB7FEB7319641E050E04C0F5D1FDE
:100B0000ADB7BEB712965C934E931197A7E0B0E0D5
:100B1000B383A28340E251E0558344836AE070E0EE
:100B20000E94F80977836683C9016AE070E00E9439
:100B3000F809918780870E945C0A8DB79EB70A9654
:100B40000FB6F8949EBF0FBE8DBF81E069E00E9492
:100B50009100CE0101960E94750086E291E00E940C
:100B6000750010928B0110928A01809188019091FA
:100B7000890120917701309178016AE070E00E944C
:100B8000F8092617370744F080918301882321F064
:100B900084EF91E00E94D3001C990CC010929A013E
:100BA0001092990184E00E94A709419A85E38A95F1
:100BB000F1F7419880917B0190917C010197F9F4C4
:100BC00010927C0110927B011092740180E069E028
:100BD0000E9491008CE291E00E947500449A2D9A47
:100BE00010927C0110927B0110927401209270018E
:100BF00030927101409272015092730176C38091DC
:100C00007401882309F44BC160917F0170918001C8
:100C100080E090E02AE030E040E050E00E94D90916
:100C200024E730E040E050E00E940B0AC901DA01FD
:100C30008093700190937101A0937201B09373013E
:100C400060917001709171018091720190917301B6
:100C50002AE030E040E050E00E940B0A9B01AC012A
:100C600020939F013093A0014093A1015093A201D2
:100C70006091700170917101809172019091730186
:100C800021EC3DEF4FEF5FEF0E94D90960527849A8
:100C90008A4C9F4F20EA36E841E050E00E940B0A60
:100CA000C901DA018093A9019093AA01A093AB0135
:100CB000B093AC01609170017091710180917201EB
:100CC00090917301C0909F01D090A001E090A1018C
:100CD000F090A201ADB7BEB71E970FB6F894BEBF95
:100CE0000FBEADBF0DB71EB70F5F1F4FE7E0F0E0BF
:100CF000EC0FFD1F1296FC93EE931197D8011396FB
:100D00009C928E921297E3E3F1E01596FC93EE939A
:100D100014972AE030E040E050E00E940B0AD8012E
:100D200016962D933D934D935C931997F801C286C7
:100D3000D386E486F5860E945C0A2DB73EB7225F13
:100D40003F4F0FB6F8943EBF0FBE2DBF80E069E065
:100D50000E949100CE0107960E9475004091A90162
:100D60005091AA016091AB017091AC018DB79EB713
:100D70000A970FB6F8949EBF0FBE8DBFEDB7FEB7B2
:100D80003196ADB7BEB71296BC92AE9211979382D0
:100D900082822CE331E03583248346835783608746
:100DA00071870E945C0A4DB75EB7465F5F4F0FB612
:100DB000F8945EBF0FBE4DBF81E060E00E949100DD
:100DC00081E491E00E9475008091A9019091AA01AF
:100DD000A091AB01B091AC018093B300109274016B
:100DE0008091700190917101A0917201B091730195
:100DF0008A5A9F40A040B0400CF03FC080917001E3
:100E000090917101A0917201B0917301875F9F4F22
:100E1000AF4FBF4F94F140917001509171016091BB
:100E20007201709173012DB73EB72A5030400FB652
:100E3000F8943EBF0FBE2DBFEDB7FEB7319623E944
:100E400031E0ADB7BEB712963C932E93119787E071
:100E500090E093838283A7E4B1E0B583A4834683C3
:100E60005783608771870E945C0AEDB7FEB73A9698
:100E70000FB6F894FEBF0FBEEDBF20E030E009C012
:100E800090818091C00085FFFCCF9093C6002F5FBA
:100E90003F4FF901ED56FE4F8081882389F78091FD
:100EA000700190917101A0917201B09173018A5A01
:100EB0009F40A040B0400CF0EFCD80917001909128
:100EC0007101A0917201B0917301875F9F4FAF4F85
:100ED000BF4F0CF4E1CD8091840190918501892B65
:100EE00009F45BC080918301882309F056C081E03A
:100EF00064E00E94910080917501909176014DB758
:100F00005EB7485050400FB6F8945EBF0FBE4DBF5D
:100F1000EDB7FEB73196ADB7BEB71296BC92AE92A2
:100F200011979382828275826482978386830E945E
:100F30005C0AEDB7FEB738960FB6F894FEBF0FBE49
:100F4000EDBFC5010E9475001092850110928401C9
:100F5000609175017091760184E690E00E941F0F08
:100F60006091700170917101809172019091730193
:100F7000E0907501F09076012AE030E040E050E02A
:100F80000E940B0A0027F7FC0095102F2E153F0535
:100F9000400751070CF05DC059C0809186019091C7
:100FA0008701892B09F457C080918301813009F0B2
:100FB00052C064E00E949100809177019091780185
:100FC0002DB73EB7285030400FB6F8943EBF0FBE45
:100FD0002DBFEDB7FEB73196ADB7BEB71296BC9236
:100FE000AE92119793828282758264829783868300
:100FF0000E945C0AEDB7FEB738960FB6F894FEBFB4
:101000000FBEEDBFC5010E947500109287011092BE
:101010008601609177017091780188EC90E00E94E0
:101020001F0F21E030E030939101209390018091D7
:1010300088019091890120917701309178016AE0CF
:1010400070E00E94F809261737071CF044982D9A83
:1010500002C0449A2D9880918301813009F04AC0E2
:1010600080E060E00E94910082E591E00E947500BE
:1010700081E064E00E949100809177019091780175
:101080004DB75EB7485050400FB6F8945EBF0FBEE4
:101090004DBFEDB7FEB73196ADB7BEB71296BC9255
:1010A000AE9211979382828275826482978386833F
:1010B0000E945C0AEDB7FEB738960FB6F894FEBFF3
:1010C0000FBEEDBFC5010E9475008091880190910F
:1010D000890120917701309178016AE070E00E94E7
:1010E000F809261737071CF044982D9A5EC0449AD9
:1010F0002D985BC0882309F058C060E00E949100E1
:1011000089E591E00E94750081E064E00E94910011
:1011100080917501909176012DB73EB728503040EF
:101120000FB6F8943EBF0FBE2DBFEDB7FEB7319698
:10113000ADB7BEB71296BC92AE92119793828282DF
:1011400075826482978386830E945C0AEDB7FEB73E
:1011500038960FB6F894FEBF0FBEEDBFC5010E94D2
:101160007500609170017091710180917201909190
:101170007301E0907501F09076012AE030E040E0E4
:1011800050E00E940B0A0027F7FC0095102FE21692
:10119000F306040715071CF044982D9A02C0449AE0
:1011A0002D981092910110929001309975CC80E0A9
:1011B0000E94C00980918301882309F04BC060E040
:1011C0000E94910082E591E00E94750081E0809389
:1011D000830164E00E9491008091770190917801F1
:1011E0002DB73EB7285030400FB6F8943EBF0FBE23
:1011F0002DBFEDB7FEB73196ADB7BEB71296BC9214
:10120000AE921197938282827582648297838683DD
:101210000E945C0AEDB7FEB738960FB6F894FEBF91
:101220000FBEEDBFC5010E947500809188019091AD
:10123000890120917701309178016AE070E00E9485
:10124000F809261737071CF044982D9A25CC449AA4
:101250002D9822CC80E060E00E94910089E591E029
:101260000E9475001092830181E064E00E94910069
:1012700080917501909176012DB73EB7285030408E
:101280000FB6F8943EBF0FBE2DBFEDB7FEB7319637
:10129000ADB7BEB71296BC92AE921197938282827E
:1012A00075826482978386830E945C0AEDB7FEB7DD
:1012B00038960FB6F894FEBF0FBEEDBFC5010E9471
:1012C000750080918801909189012091750130917C
:1012D00076016AE070E00E94F809261737071CF0D3
:1012E00044982D9A02C0449A2D9810929101109220
:1012F0009001D2CB84B5826084BDEEE6F0E08081BF
:101300008260808381E086BD0895E1E8F0E080811D
:101310008860808380E495EB9093890080938800B7
:10132000EFE6F0E08081826080830895E0EBF0E0FA
:1013300080818360808380818068808383E2809362
:10134000B300E1EBF0E0808187608083089593B182
:1013500021E030E002C0220F331F8A95E2F792238A
:1013600071F480E29EE40197F1F783B190E082236B
:101370009323892BD1F380E29EE40197F1F708953E
:1013800096B121E030E002C0220F331F8A95E2F7C8
:10139000922371F480E29EE40197F1F786B190E028
:1013A00082239323892BD1F380E29EE40197F1F706
:1013B0000895629FD001739FF001829FE00DF11D9F
:1013C000649FE00DF11D929FF00D839FF00D749FBF
:1013D000F00D659FF00D9927729FB00DE11DF91F6B
:1013E000639FB00DE11DF91FBD01CF0111240895C8
:1013F00097FB092E07260AD077FD04D027D006D008
:1014000000201AF4709561957F4F0895F6F7909536
:1014100081959F4F089597FB092E05260ED057FD05
:1014200004D028D00AD0001C38F45095409530954F
:1014300021953F4F4F4F5F4F0895F6F79095809558
:10144000709561957F4F8F4F9F4F0895AA1BBB1BCF
:1014500051E107C0AA1FBB1FA617B70710F0A61BB4
:10146000B70B881F991F5A95A9F780959095BC01D5
:10147000CD010895A1E21A2EAA1BBB1BFD010DC0D0
:10148000AA1FBB1FEE1FFF1FA217B307E407F50734
:1014900020F0A21BB30BE40BF50B661F771F881F10
:1014A000991F1A9469F760957095809590959B01A6
:1014B000AC01BD01CF010895AEE0B0E0E2E6FAE094
:1014C0000C9467100D891E898F89988D97FF02C033
:1014D00080E090E801979E838D831A83098386E0DC
:1014E0008C839E01255E3F4FCE010196698D7A8DDA
:1014F000A9010E94A70A4D815E8157FD0AC02F8174
:101500003885421753070CF49A01020F131FF80194
:1015100010822E96E4E00C948310AEE0B0E0E3E994
:10152000FAE00C94691085E08C838B899C899A83FE
:1015300089839E01295E3F4FCE0101966D897E8988
:10154000A9010E94080E2E96E2E00C948510ABE0F3
:10155000B0E0EDEAFAE00C9459103C012B015A017D
:10156000FC0117821682838181FD03C06FEF7FEF3C
:10157000C6C19AE0892E1E010894211C311CF3017A
:101580002381F20123FD859123FF81912F0188237F
:1015900009F4B2C1853239F423FD859123FF81918D
:1015A0002F01853229F490E0B3010E94900FE7CF1C
:1015B000982FFF24EE249924FFE1FF15D0F09B32F1
:1015C00069F09C3228F4903259F0933291F40EC0B5
:1015D0009D3249F0903369F441E024C052E0F52A8D
:1015E00084E0F82A28C098E0F92A25C0E0E1FE2A24
:1015F00022C0F7FC29C0892F80538A3070F4F6FE90
:1016000005C0989C902C1124980E15C0E89CE02CE5
:101610001124E80EF0E2FF2A0EC09E3229F4F6FCF7
:101620006BC140E4F42A07C09C3619F450E8F52A4F
:1016300002C0983649F4F20123FD959123FF919160
:101640002F01992309F0B8CF892F8554833018F0E2
:101650008052833038F444E050E0A40EB51E5FE3BE
:1016600059830FC0933631F0933779F0933509F0F1
:1016700056C020C0F5018081898342E050E0A40E6D
:10168000B51E610101E010E012C0F501C080D180FB
:10169000F6FC03C06FEF7FEF02C0692D70E042E0FF
:1016A00050E0A40EB51EC6010E94430F8C015FE7F7
:1016B000F52214C0F501C080D180F6FC03C06FEFA5
:1016C0007FEF02C0692D70E042E050E0A40EB51E2D
:1016D000C6010E94380F8C0150E8F52AF3FE07C0BE
:1016E0001AC080E290E0B3010E94900FEA948E2D20
:1016F00090E008171907A8F30EC0F601F7FC8591D2
:10170000F7FE81916F0190E0B3010E94900FE1100C
:10171000EA94015010400115110579F7EAC094369A
:1017200011F0993669F5F7FE08C0F5012081318185
:101730004281538184E090E00AC0F501808191816B
:101740009C01442737FD4095542F82E090E0A80E7D
:10175000B91E9FE6F92257FF09C050954095309574
:1017600021953F4F4F4F5F4FE0E8FE2ACA01B90174
:10177000A1012AE030E00E94D60FD82ED21840C036
:10178000953729F41F2D1F7E2AE030E01DC01F2D44
:10179000197F9F3661F0903720F4983509F0ACC07E
:1017A0000FC0903739F0983709F0A6C004C028E080
:1017B00030E00AC0106114FD146020E130E004C084
:1017C00014FD166020E132E017FF08C0F5016081CA
:1017D00071818281938144E050E008C0F5018081ED
:1017E0009181BC0180E090E042E050E0A40EB51E83
:1017F000A1010E94D60FD82ED2188FE7F82EF12221
:10180000F6FE0BC05EEFF522D91438F4F4FE07C0E3
:10181000F2FC05C08FEEF82202C01D2D01C0192D6B
:10182000F4FE0DC0FE01ED0DF11D8081803319F431
:1018300099EEF92208C01F5FF2FE05C003C08F2D8C
:10184000867809F01F5F0F2DF3FC14C0F0FE0FC067
:101850001E1510F09D2C0BC09D2C9E0C911A1E2D58
:1018600006C080E290E0B3010E94900F1F5F1E153A
:10187000C0F304C01E1510F4E11A01C0EE2404FFE9
:101880000FC080E390E0B3010E94900F02FF1DC0E3
:1018900001FD03C088E790E00EC088E590E00BC032
:1018A000802F867891F001FF02C08BE201C080E2B8
:1018B000F7FC8DE290E0B3010E94900F06C080E338
:1018C00090E0B3010E94900F9A94D914C0F3DA9477
:1018D000F101ED0DF11D808190E0B3010E94900FA8
:1018E000DD20A9F706C080E290E0B3010E94900FCE
:1018F000EA94EE20C1F743CEF30166817781CB01F4
:101900002B96E2E10C947510FC0120FD08C023FD2C
:1019100005C022FF02C07383628351834083089510
:10192000EF92FF920F931F9344FF02C033E011C068
:1019300046FF02C034E00DC0DB01FC01AA0FBB1F53
:10194000EE1FFF1F1094D1F76A0F7B1F8E1F9F1F82
:1019500031E0660F771F881F991F3150D1F77B0147
:101960008C01E20EF11C011D111DA8019701B701A8
:10197000CA011F910F91FF90EF9008950F931F934D
:10198000CF93DF938C01C8010E944E0FEC0197FDAD
:1019900008C00E94250F892BB1F7CE01B8010E9423
:1019A000BC0FCE01DF91CF911F910F910895A0E060
:1019B000B0E0EDEDFCE00C946110EC01C62E5A0194
:1019C000122F0E944E0FAC018B3219F08D3251F460
:1019D0001068CA9409F46DC0CE010E944E0FAC018C
:1019E00097FD67C06DEFD62ED1228D2D807301F546
:1019F0004033F1F4CA9409F447C0CE010E944E0F5F
:101A0000AC0197FD41C082E0D82A483711F0483533
:101A100059F480E4D82ACA94B9F1CE010E944E0F3D
:101A2000AC0199232CF430C0D6FC02C080E1D82A46
:101A3000EE24FF248701242F2053283088F0D4FC83
:101A400009C02A3068F0D6FE05C02F7D822F815153
:101A5000863028F0CA01BE010E94BC0F12C0275078
:101A6000C801B7014D2D0E94900C7B018C0182E0D2
:101A7000D82ACA9461F0CE010E944E0FAC0197FFA4
:101A8000DACFD1FC04C015C0EE24FF248701D7FEB5
:101A900008C010950095F094E094E11CF11C011D24
:101AA000111DC501B801A7012D2D0E94840C81E0F4
:101AB00001C080E0CDB7DEB7EAE00C947D10A0E273
:101AC000B0E0E5E6FDE00C945D106C01A62E8A0105
:101AD0007901FE01319680E2DF011D928A95E9F7D6
:101AE00070E030E060E040E050E04F01A1E0B0E0A5
:101AF000F6018381F70183FD259183FF21917F0109
:101B0000222309F47EC02E3519F44115510569F1DF
:101B1000872F90E08417950744F42D3551F12D322D
:101B200021F4332329F431E021C0332309F4622F57
:101B3000322F832F869586958695F401E80FF11D47
:101B4000832F87703D0102C0660C771C8A95E2F7EF
:101B5000208126292083361711F430E007C036177C
:101B600010F43F5FE6CF3150E4CF71E04F5F5F4F3D
:101B7000BFCF332319F08E8180628E83772359F093
:101B8000FE0131969E012F5D3F4F808180958193AC
:101B9000E217F307D1F7BB24B3944E010894811CDC
:101BA000911CC6010E944E0FAC0197FD22C0869584
:101BB00086958695F401E80FF11D808190E09A01E9
:101BC0002770307002C0959587952A95E2F780FDC1
:101BD00005C0CA01B6010E94BC0F0BC0011511055A
:101BE00019F0D8014D938D01AA94BB24AA20C9F6FF
:101BF00002C0BB2031F40115110529F0F801108253
:101C000002C0EE24FF24C701A096EEE00C947910E8
:101C1000A0E0B0E0EEE0FEE00C945D105C016B0132
:101C20003A01FC01178216828824EAC0812F90E0D5
:101C30000E94250F892B21F0C5010E94BE0CE0C037
:101C4000153249F4F601F3FC6591F3FE61916F01E1
:101C5000653269F415E2C5010E944E0F97FDDCC0A4
:101C6000181709F4CDC0B5010E94BC0FDAC06A3262
:101C700019F0162F00E006C0F3FC1591F3FE119148
:101C80006F0101E099240FC00260692D70E080E0CF
:101C900090E040E20E94900C962EF601F3FC159124
:101CA000F3FE11916F01212F20532A3068F301FDBB
:101CB00003C099249A9403C0992009F4B2C018363D
:101CC00021F01C3699F4F6010BC0F601F3FC659186
:101CD000F3FE6191683619F06F01162F07C0086096
:101CE0000460F3FC1591F3FE11916F01112309F4C7
:101CF00098C088E690E0612F70E00E942D0F892B3C
:101D000009F48FC0802F00FF03C0EE24FF2407C01A
:101D1000F301E080F18022E030E0620E731E1E3697
:101D200051F4F5014681578160E070E0C701202F32
:101D30000E94840C65C0133691F481FD02C0992481
:101D40009394C5010E944E0F97FD66C0E114F10403
:101D500019F0F70181937F019A9499F74FC01B35D1
:101D600059F4C501692DA70196010E945F0D6C0110
:101D7000009709F043C03DC0C5010E94BE0C97FD0D
:101D80004BC01F3659F1103728F4143629F1193693
:101D900039F527C0133719F0153711F51DC0C501E6
:101DA0000E944E0FEC0197FD11C00E94250F892B58
:101DB00029F0CE01B5010E94BC0F08C0E114F10466
:101DC00019F0F701C1937F019A9449F7E114F104E6
:101DD000A9F0F701108212C0006203C0006101C0C7
:101DE0000064C501692DA701202F0E94D70C88230C
:101DF00029F4F5018381807379F413C000FF839483
:101E0000F501F380F601F3FC1591F3FE11916F01DA
:101E1000112309F00BCF05C0882019F42FEF3FEFF5
:101E200002C0282D30E0C901CDB7DEB7EEE00C943A
:101E30007910A8E1B0E042E050E00C943610019631
:101E4000272F0E9445100C94441091112FC180320D
:101E500019F089508550D0F70895FC0105900616B9
:101E600021F00020D9F7C00108953197CF010895DE
:101E7000FC010590615070400110D8F78095909555
:101E80008E0F9F1F0895FC0161507040019001105A
:101E9000D8F7809590958E0F9F1F0895CF93DF936D
:101EA000EC014B8140FF1AC046FF0AC04F7B4B83B9
:101EB0008E819F8101969F838E838A81282F2BC0DC
:101EC00042FF13C0E881F9818081282F332727FD45
:101ED00030952115310529F440624B832FEF3FEFF8
:101EE0001BC03196F983E88311C0EA85FB85CE01DA
:101EF00009959C0197FF0AC09B812F5F3F4F11F00E
:101F000080E201C080E1892B8B83E8CF8E819F81A5
:101F100001969F838E8330E0C901DF91CF910895B0
:101F20000F931F93CF93DF938C01EB018B8181FF84
:101F30001BC082FF0DC02E813F818C819D8128179F
:101F4000390764F4E881F9810193F983E88306C0D5
:101F5000E885F985802F0995892B31F48E819F8141
:101F600001969F838E8302C00FEF1FEFC801DF91A0
:101F7000CF911F910F9108959C01FB01838180FFF8
:101F800011C086FD0FC09FEF2F3F390759F0228304
:101F900080648F7D83838681978101979783868371
:101FA00030E002C02FEF3FEFC9010895FA01AA27E0
:101FB000283051F1203181F1E8946F936E7F6E5F8C
:101FC0007F4F8F4F9F4FAF4FB1E03ED0B4E03CD03A
:101FD000670F781F891F9A1FA11D680F791F8A1F1D
:101FE000911DA11D6A0F711D811D911DA11D20D084
:101FF00009F468943F912AE0269F11243019305D3E
:102000003193DEF6CF010895462F4770405D41932E
:10201000B3E00FD0C9F7F6CF462F4F70405D4A337B
:1020200018F0495D31FD4052419302D0A9F7EACF43
:10203000B4E0A6959795879577956795BA95C9F772
:1020400000976105710508959B01AC010A2E069465
:102050005795479537952795BA95C9F7620F731F1E
:10206000841F951FA01D0895DC01CB01FC01F99987
:10207000FECF06C0F2BDE1BDF89A319600B40D92D4
:1020800041505040B8F70895262FF999FECF92BDE0
:1020900081BDF89A019700B4021639F01FBA20BD2D
:1020A0000FB6F894FA9AF99A0FBE089599278827DF
:1020B00008952F923F924F925F926F927F928F92EC
:1020C0009F92AF92BF92CF92DF92EF92FF920F93C7
:1020D0001F93CF93DF93CDB7DEB7CA1BDB0B0FB6D1
:1020E000F894DEBF0FBECDBF09942A88398848888E
:1020F0005F846E847D848C849B84AA84B984C88424
:10210000DF80EE80FD800C811B81AA81B981CE0F1A
:10211000D11D0FB6F894DEBF0FBECDBFED010895FF
:04212000F894FFCF61
:1021240025730045453130392050726F6A656374F8
:10213400004A61736F6E204A6F73686900256400FA
:1021440025642E2564002020202020003E343030D9
:1021540020200025346C642E256C640025336C64C7
:10216400004D696E3D20003C256C643E00253033F3
:10217400640052656D6F7465004C6F63616C200080
:10218400060126014A015D018801B801EE010B0236
:0421940088130000AC
:00000001FF
